{
  "contractName": "CryptoCars",
  "abi": [
    {
      "constant": true,
      "inputs": [
        {
          "name": "",
          "type": "address"
        }
      ],
      "name": "owners",
      "outputs": [
        {
          "name": "length",
          "type": "uint256"
        }
      ],
      "payable": false,
      "stateMutability": "view",
      "type": "function"
    },
    {
      "constant": true,
      "inputs": [
        {
          "name": "",
          "type": "bytes32"
        }
      ],
      "name": "cars",
      "outputs": [
        {
          "name": "price",
          "type": "uint256"
        },
        {
          "name": "owner",
          "type": "address"
        },
        {
          "name": "model",
          "type": "string"
        },
        {
          "name": "doWeOwnIt",
          "type": "bool"
        }
      ],
      "payable": false,
      "stateMutability": "view",
      "type": "function"
    },
    {
      "constant": false,
      "inputs": [],
      "name": "renounceOwnership",
      "outputs": [],
      "payable": false,
      "stateMutability": "nonpayable",
      "type": "function"
    },
    {
      "constant": true,
      "inputs": [],
      "name": "owner",
      "outputs": [
        {
          "name": "",
          "type": "address"
        }
      ],
      "payable": false,
      "stateMutability": "view",
      "type": "function"
    },
    {
      "constant": false,
      "inputs": [
        {
          "name": "_newOwner",
          "type": "address"
        }
      ],
      "name": "transferOwnership",
      "outputs": [],
      "payable": false,
      "stateMutability": "nonpayable",
      "type": "function"
    },
    {
      "anonymous": false,
      "inputs": [
        {
          "indexed": false,
          "name": "buyer",
          "type": "address"
        },
        {
          "indexed": false,
          "name": "paied",
          "type": "uint256"
        },
        {
          "indexed": false,
          "name": "slogan",
          "type": "string"
        }
      ],
      "name": "LogCarBought",
      "type": "event"
    },
    {
      "anonymous": false,
      "inputs": [
        {
          "indexed": false,
          "name": "amount",
          "type": "uint256"
        },
        {
          "indexed": false,
          "name": "timestamp",
          "type": "uint256"
        }
      ],
      "name": "LogWithdrawal",
      "type": "event"
    },
    {
      "anonymous": false,
      "inputs": [
        {
          "indexed": true,
          "name": "previousOwner",
          "type": "address"
        }
      ],
      "name": "OwnershipRenounced",
      "type": "event"
    },
    {
      "anonymous": false,
      "inputs": [
        {
          "indexed": true,
          "name": "previousOwner",
          "type": "address"
        },
        {
          "indexed": true,
          "name": "newOwner",
          "type": "address"
        }
      ],
      "name": "OwnershipTransferred",
      "type": "event"
    },
    {
      "constant": false,
      "inputs": [
        {
          "name": "carModel",
          "type": "string"
        }
      ],
      "name": "buy",
      "outputs": [],
      "payable": true,
      "stateMutability": "payable",
      "type": "function"
    },
    {
      "constant": true,
      "inputs": [
        {
          "name": "_address",
          "type": "address"
        }
      ],
      "name": "getUserCars",
      "outputs": [
        {
          "name": "",
          "type": "uint256"
        }
      ],
      "payable": false,
      "stateMutability": "view",
      "type": "function"
    },
    {
      "constant": true,
      "inputs": [
        {
          "name": "_address",
          "type": "address"
        },
        {
          "name": "_index",
          "type": "uint256"
        }
      ],
      "name": "getUserCar",
      "outputs": [
        {
          "name": "",
          "type": "string"
        }
      ],
      "payable": false,
      "stateMutability": "view",
      "type": "function"
    },
    {
      "constant": true,
      "inputs": [
        {
          "name": "model",
          "type": "string"
        }
      ],
      "name": "whoOwnsTheCar",
      "outputs": [
        {
          "name": "",
          "type": "address"
        },
        {
          "name": "",
          "type": "uint256"
        }
      ],
      "payable": false,
      "stateMutability": "view",
      "type": "function"
    },
    {
      "constant": false,
      "inputs": [],
      "name": "withdraw",
      "outputs": [],
      "payable": false,
      "stateMutability": "nonpayable",
      "type": "function"
    }
  ],
  "bytecode": "0x6080604052336000806101000a81548173ffffffffffffffffffffffffffffffffffffffff021916908373ffffffffffffffffffffffffffffffffffffffff160217905550611b88806100536000396000f3006080604052600436106100a4576000357c0100000000000000000000000000000000000000000000000000000000900463ffffffff168063022914a7146100a95780632698286c146101005780632f4e81c6146101575780633ccfd60b14610246578063492cc7691461025d578063715018a6146102b95780638da5cb5b146102d0578063b43ad38414610327578063b43ba30c146103d7578063f2fde38b1461049d575b600080fd5b3480156100b557600080fd5b506100ea600480360381019080803573ffffffffffffffffffffffffffffffffffffffff1690602001909291905050506104e0565b6040518082815260200191505060405180910390f35b34801561010c57600080fd5b50610141600480360381019080803573ffffffffffffffffffffffffffffffffffffffff1690602001909291905050506104fe565b6040518082815260200191505060405180910390f35b34801561016357600080fd5b50610186600480360381019080803560001916906020019092919050505061054a565b604051808581526020018473ffffffffffffffffffffffffffffffffffffffff1673ffffffffffffffffffffffffffffffffffffffff1681526020018060200183151515158152602001828103825284818151815260200191508051906020019080838360005b838110156102085780820151818401526020810190506101ed565b50505050905090810190601f1680156102355780820380516001836020036101000a031916815260200191505b509550505050505060405180910390f35b34801561025257600080fd5b5061025b61063f565b005b6102b7600480360381019080803590602001908201803590602001908080601f01602080910402602001604051908101604052809392919081815260200183838082843782019150505050505091929192905050506107ef565b005b3480156102c557600080fd5b506102ce6108cd565b005b3480156102dc57600080fd5b506102e56109cf565b604051808273ffffffffffffffffffffffffffffffffffffffff1673ffffffffffffffffffffffffffffffffffffffff16815260200191505060405180910390f35b34801561033357600080fd5b5061038e600480360381019080803590602001908201803590602001908080601f01602080910402602001604051908101604052809392919081815260200183838082843782019150505050505091929192905050506109f4565b604051808373ffffffffffffffffffffffffffffffffffffffff1673ffffffffffffffffffffffffffffffffffffffff1681526020018281526020019250505060405180910390f35b3480156103e357600080fd5b50610422600480360381019080803573ffffffffffffffffffffffffffffffffffffffff16906020019092919080359060200190929190505050610bd0565b6040518080602001828103825283818151815260200191508051906020019080838360005b83811015610462578082015181840152602081019050610447565b50505050905090810190601f16801561048f5780820380516001836020036101000a031916815260200191505b509250505060405180910390f35b3480156104a957600080fd5b506104de600480360381019080803573ffffffffffffffffffffffffffffffffffffffff169060200190929190505050610d88565b005b60026020528060005260406000206000915090508060000154905081565b6000600260008373ffffffffffffffffffffffffffffffffffffffff1673ffffffffffffffffffffffffffffffffffffffff168152602001908152602001600020600001549050919050565b60016020528060005260406000206000915090508060000154908060010160009054906101000a900473ffffffffffffffffffffffffffffffffffffffff1690806002018054600181600116156101000203166002900480601f0160208091040260200160405190810160405280929190818152602001828054600181600116156101000203166002900480156106225780601f106105f757610100808354040283529160200191610622565b820191906000526020600020905b81548152906001019060200180831161060557829003601f168201915b5050505050908060030160009054906101000a900460ff16905084565b60008060009054906101000a900473ffffffffffffffffffffffffffffffffffffffff1673ffffffffffffffffffffffffffffffffffffffff163373ffffffffffffffffffffffffffffffffffffffff1614151561069c57600080fd5b3073ffffffffffffffffffffffffffffffffffffffff1631905060008111151561072e576040517f08c379a00000000000000000000000000000000000000000000000000000000081526004018080602001828103825260158152602001807f436f6e74726163742062616c616e63652069732030000000000000000000000081525060200191505060405180910390fd5b6000809054906101000a900473ffffffffffffffffffffffffffffffffffffffff1673ffffffffffffffffffffffffffffffffffffffff166108fc3073ffffffffffffffffffffffffffffffffffffffff16319081150290604051600060405180830381858888f193505050501580156107ac573d6000803e3d6000fd5b507fd13a5da6bc8ac80614509e23ebe361a43965fa427ce0bcb49e6926016ee51ff08142604051808381526020018281526020019250505060405180910390a150565b6000816040518082805190602001908083835b6020831015156108275780518252602082019150602081019050602083039250610802565b6001836020036101000a038019825116818451168082178552505050505050905001915050604051809103902090506000809054906101000a900473ffffffffffffffffffffffffffffffffffffffff1673ffffffffffffffffffffffffffffffffffffffff163373ffffffffffffffffffffffffffffffffffffffff1614156108bc576108b782823334610def565b6108c9565b6108c8828233346110ca565b5b5050565b6000809054906101000a900473ffffffffffffffffffffffffffffffffffffffff1673ffffffffffffffffffffffffffffffffffffffff163373ffffffffffffffffffffffffffffffffffffffff1614151561092857600080fd5b6000809054906101000a900473ffffffffffffffffffffffffffffffffffffffff1673ffffffffffffffffffffffffffffffffffffffff167ff8df31144d9c2f0f6b59d69b8b98abd5459d07f2742c4df920b25aae33c6482060405160405180910390a260008060006101000a81548173ffffffffffffffffffffffffffffffffffffffff021916908373ffffffffffffffffffffffffffffffffffffffff160217905550565b6000809054906101000a900473ffffffffffffffffffffffffffffffffffffffff1681565b6000806000836000816040518082805190602001908083835b602083101515610a325780518252602082019150602081019050602083039250610a0d565b6001836020036101000a0380198251168184511680821785525050505050509050019150506040518091039020905060016000826000191660001916815260200190815260200160002060030160009054906101000a900460ff161515610b01576040517f08c379a00000000000000000000000000000000000000000000000000000000081526004018080602001828103825260178152602001807f576520646f6e2774206f776e207468617420636172212100000000000000000081525060200191505060405180910390fd5b856040518082805190602001908083835b602083101515610b375780518252602082019150602081019050602083039250610b12565b6001836020036101000a0380198251168184511680821785525050505050509050019150506040518091039020925060016000846000191660001916815260200190815260200160002060010160009054906101000a900473ffffffffffffffffffffffffffffffffffffffff166001600085600019166000191681526020019081526020016000206000015494509450505050915091565b606081600260008573ffffffffffffffffffffffffffffffffffffffff1673ffffffffffffffffffffffffffffffffffffffff16815260200190815260200160002060010180549050111515610c8e576040517f08c379a00000000000000000000000000000000000000000000000000000000081526004018080602001828103825260138152602001807f696e646578206e6f7420617661696c61626c650000000000000000000000000081525060200191505060405180910390fd5b600260008473ffffffffffffffffffffffffffffffffffffffff1673ffffffffffffffffffffffffffffffffffffffff16815260200190815260200160002060010182815481101515610cdd57fe5b906000526020600020018054600181600116156101000203166002900480601f016020809104026020016040519081016040528092919081815260200182805460018160011615610100020316600290048015610d7b5780601f10610d5057610100808354040283529160200191610d7b565b820191906000526020600020905b815481529060010190602001808311610d5e57829003601f168201915b5050505050905092915050565b6000809054906101000a900473ffffffffffffffffffffffffffffffffffffffff1673ffffffffffffffffffffffffffffffffffffffff163373ffffffffffffffffffffffffffffffffffffffff16141515610de357600080fd5b610dec8161186e565b50565b600081111515610e67576040517f08c379a00000000000000000000000000000000000000000000000000000000081526004018080602001828103825260188152602001807f50726963652073686f756c6420626520706f736974697665000000000000000081525060200191505060405180910390fd5b6080604051908101604052808281526020018373ffffffffffffffffffffffffffffffffffffffff168152602001858152602001600115158152506001600085600019166000191681526020019081526020016000206000820151816000015560208201518160010160006101000a81548173ffffffffffffffffffffffffffffffffffffffff021916908373ffffffffffffffffffffffffffffffffffffffff1602179055506040820151816002019080519060200190610f2a929190611968565b5060608201518160030160006101000a81548160ff021916908315150217905550905050600260008373ffffffffffffffffffffffffffffffffffffffff1673ffffffffffffffffffffffffffffffffffffffff16815260200190815260200160002060000160008154809291906001019190505550600260008373ffffffffffffffffffffffffffffffffffffffff1673ffffffffffffffffffffffffffffffffffffffff16815260200190815260200160002060010184908060018154018082558091505090600182039060005260206000200160009091929091909150908051906020019061101d9291906119e8565b50506001600260003373ffffffffffffffffffffffffffffffffffffffff1673ffffffffffffffffffffffffffffffffffffffff1681526020019081526020016000206000015403600260008473ffffffffffffffffffffffffffffffffffffffff1673ffffffffffffffffffffffffffffffffffffffff168152602001908152602001600020600201600085600019166000191681526020019081526020016000208190555050505050565b600080600060016000876000191660001916815260200190815260200160002060030160009054906101000a900460ff16151561116f576040517f08c379a00000000000000000000000000000000000000000000000000000000081526004018080602001828103825260158152602001807f576520646f6e2774206f776e207468617420636172000000000000000000000081525060200191505060405180910390fd5b60016000876000191660001916815260200190815260200160002060000154600202341015151561122e576040517f08c379a00000000000000000000000000000000000000000000000000000000081526004018080602001828103825260288152602001807f596f75206861766520746f20706179206174206c65617374207477696365207481526020017f686520707269636500000000000000000000000000000000000000000000000081525060400191505060405180910390fd5b60016000876000191660001916815260200190815260200160002060010160009054906101000a900473ffffffffffffffffffffffffffffffffffffffff1692506080604051908101604052808581526020018673ffffffffffffffffffffffffffffffffffffffff168152602001888152602001600115158152506001600088600019166000191681526020019081526020016000206000820151816000015560208201518160010160006101000a81548173ffffffffffffffffffffffffffffffffffffffff021916908373ffffffffffffffffffffffffffffffffffffffff1602179055506040820151816002019080519060200190611332929190611968565b5060608201518160030160006101000a81548160ff021916908315150217905550905050600260008673ffffffffffffffffffffffffffffffffffffffff1673ffffffffffffffffffffffffffffffffffffffff16815260200190815260200160002060000160008154809291906001019190505550600260008673ffffffffffffffffffffffffffffffffffffffff1673ffffffffffffffffffffffffffffffffffffffff1681526020019081526020016000206001018790806001815401808255809150509060018203906000526020600020016000909192909190915090805190602001906114259291906119e8565b50506001600260003373ffffffffffffffffffffffffffffffffffffffff1673ffffffffffffffffffffffffffffffffffffffff1681526020019081526020016000206000015403600260008773ffffffffffffffffffffffffffffffffffffffff1673ffffffffffffffffffffffffffffffffffffffff1681526020019081526020016000206002016000886000191660001916815260200190815260200160002081905550600260008473ffffffffffffffffffffffffffffffffffffffff1673ffffffffffffffffffffffffffffffffffffffff1681526020019081526020016000206000016000815480929190600190039190505550600260008473ffffffffffffffffffffffffffffffffffffffff1673ffffffffffffffffffffffffffffffffffffffff16815260200190815260200160002060020160008760001916600019168152602001908152602001600020549150600260008473ffffffffffffffffffffffffffffffffffffffff1673ffffffffffffffffffffffffffffffffffffffff168152602001908152602001600020600101828154811015156115cc57fe5b9060005260206000200160006115e29190611a68565b6000600260008573ffffffffffffffffffffffffffffffffffffffff1673ffffffffffffffffffffffffffffffffffffffff16815260200190815260200160002060000154111561186557600260008473ffffffffffffffffffffffffffffffffffffffff1673ffffffffffffffffffffffffffffffffffffffff168152602001908152602001600020600101600260008573ffffffffffffffffffffffffffffffffffffffff1673ffffffffffffffffffffffffffffffffffffffff168152602001908152602001600020600001548154811015156116be57fe5b90600052602060002001600260008573ffffffffffffffffffffffffffffffffffffffff1673ffffffffffffffffffffffffffffffffffffffff1681526020019081526020016000206001018381548110151561171757fe5b906000526020600020019080546001816001161561010002031660029004611740929190611ab0565b50600260008473ffffffffffffffffffffffffffffffffffffffff1673ffffffffffffffffffffffffffffffffffffffff1681526020019081526020016000206001018281548110151561179057fe5b9060005260206000200160405180828054600181600116156101000203166002900480156117f55780601f106117d35761010080835404028352918201916117f5565b820191906000526020600020905b8154815290600101906020018083116117e1575b50509150506040518091039020905081600260008573ffffffffffffffffffffffffffffffffffffffff1673ffffffffffffffffffffffffffffffffffffffff16815260200190815260200160002060020160008360001916600019168152602001908152602001600020819055505b50505050505050565b600073ffffffffffffffffffffffffffffffffffffffff168173ffffffffffffffffffffffffffffffffffffffff16141515156118aa57600080fd5b8073ffffffffffffffffffffffffffffffffffffffff166000809054906101000a900473ffffffffffffffffffffffffffffffffffffffff1673ffffffffffffffffffffffffffffffffffffffff167f8be0079c531659141344cd1fd0a4f28419497f9722a3daafe3b4186f6b6457e060405160405180910390a3806000806101000a81548173ffffffffffffffffffffffffffffffffffffffff021916908373ffffffffffffffffffffffffffffffffffffffff16021790555050565b828054600181600116156101000203166002900490600052602060002090601f016020900481019282601f106119a957805160ff19168380011785556119d7565b828001600101855582156119d7579182015b828111156119d65782518255916020019190600101906119bb565b5b5090506119e49190611b37565b5090565b828054600181600116156101000203166002900490600052602060002090601f016020900481019282601f10611a2957805160ff1916838001178555611a57565b82800160010185558215611a57579182015b82811115611a56578251825591602001919060010190611a3b565b5b509050611a649190611b37565b5090565b50805460018160011615610100020316600290046000825580601f10611a8e5750611aad565b601f016020900490600052602060002090810190611aac9190611b37565b5b50565b828054600181600116156101000203166002900490600052602060002090601f016020900481019282601f10611ae95780548555611b26565b82800160010185558215611b2657600052602060002091601f016020900482015b82811115611b25578254825591600101919060010190611b0a565b5b509050611b339190611b37565b5090565b611b5991905b80821115611b55576000816000905550600101611b3d565b5090565b905600a165627a7a723058208061f74080206fd2b1250c4431c3112cd0628c3cd703bc0a86e5f503413102f90029",
  "source": "pragma solidity ^0.4.24;\r\n\r\nimport \"openzeppelin-solidity/contracts/ownership/Ownable.sol\";\r\n\r\ncontract CryptoCars is Ownable {\r\n    struct Car {\r\n        uint256 price;\r\n        address owner;\r\n        string model;\r\n        bool doWeOwnIt;\r\n    }\r\n    struct ArrOfCars {\r\n        uint length;\r\n        string[] cars;\r\n        mapping(bytes32 => uint256) carIndex;\r\n    }\r\n    mapping(bytes32 => Car) public cars;\r\n    mapping(address => ArrOfCars) public owners;\r\n    \r\n    /**\r\n     * events\r\n     */\r\n\r\n    event LogCarBought(address buyer, uint256 paied, string slogan);\r\n    event LogWithdrawal(uint256 amount, uint256 timestamp);\r\n\r\n    /**\r\n     * modifiers\r\n     */\r\n    \r\n    modifier onlyAvailableCars(string model) {\r\n        bytes32 modelHash = keccak256(model);\r\n        require((cars[modelHash].doWeOwnIt), \"We don't own that car!!\");\r\n        _;\r\n    }\r\n\r\n    /**\r\n     * functions\r\n     */\r\n\r\n    function buy(string carModel) public payable {\r\n        bytes32 carModelHash = keccak256(carModel);\r\n        \r\n        if (msg.sender == owner) {\r\n            buyForUs(carModel, carModelHash, msg.sender, msg.value);\r\n        } else {\r\n            buyFromUs(carModel, carModelHash, msg.sender, msg.value);\r\n        }\r\n    }\r\n    \r\n    function buyForUs(string carModel, bytes32 carModelHash, address sender, uint256 value) private {\r\n        require((value > 0), \"Price should be positive\");\r\n        \r\n        cars[carModelHash] = Car({ price: value, owner: sender, model: carModel, doWeOwnIt: true });\r\n        owners[sender].length++;\r\n        owners[sender].cars.push(carModel);\r\n        owners[sender].carIndex[carModelHash] = owners[msg.sender].length - 1;\r\n    }\r\n    \r\n    function buyFromUs(string carModel, bytes32 carModelHash, address sender, uint256 value) private {\r\n        require((cars[carModelHash].doWeOwnIt), \"We don't own that car\");\r\n        require((msg.value >= 2 * cars[carModelHash].price), \"You have to pay at least twice the price\");\r\n        \r\n        address oldOwner = cars[carModelHash].owner;\r\n        \r\n        cars[carModelHash] = Car({ price: value, owner: sender, model: carModel, doWeOwnIt: true });\r\n        owners[sender].length++;\r\n        owners[sender].cars.push(carModel);\r\n        owners[sender].carIndex[carModelHash] = owners[msg.sender].length - 1;\r\n        \r\n        owners[oldOwner].length--;\r\n        uint256 soldCarIndex = owners[oldOwner].carIndex[carModelHash];\r\n        delete owners[oldOwner].cars[soldCarIndex];\r\n        \r\n        if (owners[oldOwner].length > 0){\r\n            owners[oldOwner].cars[soldCarIndex] = owners[oldOwner].cars[owners[oldOwner].length];\r\n            bytes32 hashOf = keccak256(owners[oldOwner].cars[soldCarIndex]);\r\n            owners[oldOwner].carIndex[hashOf] = soldCarIndex;\r\n        }\r\n    }\r\n    \r\n    function getUserCars(address _address) public view returns(uint256) {\r\n        return owners[_address].length;\r\n    }\r\n    \r\n    function getUserCar(address _address, uint256 _index) public view returns(string) {\r\n        require((owners[_address].cars.length > _index), 'index not available');\r\n\r\n        return owners[_address].cars[_index];\r\n    }\r\n    \r\n    function whoOwnsTheCar(string model) public view onlyAvailableCars(model) returns(address, uint256) {\r\n        bytes32 modelHash = keccak256(model);\r\n        \r\n        return (cars[modelHash].owner, cars[modelHash].price);\r\n    }\r\n\r\n    function withdraw() public onlyOwner {\r\n        uint256 balance = address(this).balance;\r\n\r\n        require(balance > 0, \"Contract balance is 0\");\r\n\r\n        owner.transfer(address(this).balance);\r\n\r\n        emit LogWithdrawal(balance, now);\r\n    }\r\n}",
  "sourcePath": "C:\\projects\\lime\\class\\contracts\\CryptoCars.sol",
  "compiler": {
    "name": "solc",
    "version": "0.4.25+commit.59dbf8f1.Emscripten.clang"
  },
  "schemaVersion": "0.9.8",
  "updatedAt": "2018-10-22T19:32:14.017Z"
}